{
  "_format": "hh-sol-artifact-1",
  "contractName": "NFTGame",
  "sourceName": "contracts/NFTGame.sol",
  "abi": [
    {
      "inputs": [
        {
          "internalType": "string[]",
          "name": "characterNames",
          "type": "string[]"
        },
        {
          "internalType": "string[]",
          "name": "characterImageURIs",
          "type": "string[]"
        },
        {
          "internalType": "uint256[]",
          "name": "characterHp",
          "type": "uint256[]"
        },
        {
          "internalType": "uint256[]",
          "name": "characterAttackDmg",
          "type": "uint256[]"
        },
        {
          "internalType": "uint256[]",
          "name": "characterArmour",
          "type": "uint256[]"
        },
        {
          "internalType": "string",
          "name": "bossName",
          "type": "string"
        },
        {
          "internalType": "string",
          "name": "bossImageURI",
          "type": "string"
        },
        {
          "internalType": "uint256",
          "name": "bossHp",
          "type": "uint256"
        },
        {
          "internalType": "uint256",
          "name": "bossAttackDamage",
          "type": "uint256"
        }
      ],
      "stateMutability": "nonpayable",
      "type": "constructor"
    },
    {
      "anonymous": false,
      "inputs": [
        {
          "indexed": true,
          "internalType": "address",
          "name": "owner",
          "type": "address"
        },
        {
          "indexed": true,
          "internalType": "address",
          "name": "approved",
          "type": "address"
        },
        {
          "indexed": true,
          "internalType": "uint256",
          "name": "tokenId",
          "type": "uint256"
        }
      ],
      "name": "Approval",
      "type": "event"
    },
    {
      "anonymous": false,
      "inputs": [
        {
          "indexed": true,
          "internalType": "address",
          "name": "owner",
          "type": "address"
        },
        {
          "indexed": true,
          "internalType": "address",
          "name": "operator",
          "type": "address"
        },
        {
          "indexed": false,
          "internalType": "bool",
          "name": "approved",
          "type": "bool"
        }
      ],
      "name": "ApprovalForAll",
      "type": "event"
    },
    {
      "anonymous": false,
      "inputs": [
        {
          "indexed": false,
          "internalType": "uint256",
          "name": "newBossHp",
          "type": "uint256"
        },
        {
          "indexed": false,
          "internalType": "uint256",
          "name": "newPlayerHp",
          "type": "uint256"
        }
      ],
      "name": "AttackComplete",
      "type": "event"
    },
    {
      "anonymous": false,
      "inputs": [
        {
          "indexed": false,
          "internalType": "address",
          "name": "sender",
          "type": "address"
        },
        {
          "indexed": false,
          "internalType": "uint256",
          "name": "tokenId",
          "type": "uint256"
        },
        {
          "indexed": false,
          "internalType": "uint256",
          "name": "charcterIndex",
          "type": "uint256"
        }
      ],
      "name": "CharacterNftMinted",
      "type": "event"
    },
    {
      "anonymous": false,
      "inputs": [
        {
          "indexed": true,
          "internalType": "address",
          "name": "from",
          "type": "address"
        },
        {
          "indexed": true,
          "internalType": "address",
          "name": "to",
          "type": "address"
        },
        {
          "indexed": true,
          "internalType": "uint256",
          "name": "tokenId",
          "type": "uint256"
        }
      ],
      "name": "Transfer",
      "type": "event"
    },
    {
      "inputs": [
        {
          "internalType": "address",
          "name": "to",
          "type": "address"
        },
        {
          "internalType": "uint256",
          "name": "tokenId",
          "type": "uint256"
        }
      ],
      "name": "approve",
      "outputs": [],
      "stateMutability": "nonpayable",
      "type": "function"
    },
    {
      "inputs": [],
      "name": "attackBoss",
      "outputs": [],
      "stateMutability": "nonpayable",
      "type": "function"
    },
    {
      "inputs": [
        {
          "internalType": "address",
          "name": "owner",
          "type": "address"
        }
      ],
      "name": "balanceOf",
      "outputs": [
        {
          "internalType": "uint256",
          "name": "",
          "type": "uint256"
        }
      ],
      "stateMutability": "view",
      "type": "function"
    },
    {
      "inputs": [],
      "name": "bigBoss",
      "outputs": [
        {
          "internalType": "string",
          "name": "name",
          "type": "string"
        },
        {
          "internalType": "string",
          "name": "imageURI",
          "type": "string"
        },
        {
          "internalType": "uint256",
          "name": "hp",
          "type": "uint256"
        },
        {
          "internalType": "uint256",
          "name": "maxHp",
          "type": "uint256"
        },
        {
          "internalType": "uint256",
          "name": "attackDamage",
          "type": "uint256"
        }
      ],
      "stateMutability": "view",
      "type": "function"
    },
    {
      "inputs": [],
      "name": "checkIfUserHasNFT",
      "outputs": [
        {
          "components": [
            {
              "internalType": "uint256",
              "name": "characterIndex",
              "type": "uint256"
            },
            {
              "internalType": "string",
              "name": "name",
              "type": "string"
            },
            {
              "internalType": "string",
              "name": "imageURI",
              "type": "string"
            },
            {
              "internalType": "uint256",
              "name": "hp",
              "type": "uint256"
            },
            {
              "internalType": "uint256",
              "name": "maxHp",
              "type": "uint256"
            },
            {
              "internalType": "uint256",
              "name": "attackDamage",
              "type": "uint256"
            },
            {
              "internalType": "uint256",
              "name": "armour",
              "type": "uint256"
            },
            {
              "internalType": "uint256",
              "name": "maxArmour",
              "type": "uint256"
            }
          ],
          "internalType": "struct NFTGame.CharacterAttributes",
          "name": "",
          "type": "tuple"
        }
      ],
      "stateMutability": "view",
      "type": "function"
    },
    {
      "inputs": [
        {
          "internalType": "uint256",
          "name": "tokenId",
          "type": "uint256"
        }
      ],
      "name": "getApproved",
      "outputs": [
        {
          "internalType": "address",
          "name": "",
          "type": "address"
        }
      ],
      "stateMutability": "view",
      "type": "function"
    },
    {
      "inputs": [],
      "name": "getBigBoss",
      "outputs": [
        {
          "components": [
            {
              "internalType": "string",
              "name": "name",
              "type": "string"
            },
            {
              "internalType": "string",
              "name": "imageURI",
              "type": "string"
            },
            {
              "internalType": "uint256",
              "name": "hp",
              "type": "uint256"
            },
            {
              "internalType": "uint256",
              "name": "maxHp",
              "type": "uint256"
            },
            {
              "internalType": "uint256",
              "name": "attackDamage",
              "type": "uint256"
            }
          ],
          "internalType": "struct NFTGame.BigBoss",
          "name": "",
          "type": "tuple"
        }
      ],
      "stateMutability": "view",
      "type": "function"
    },
    {
      "inputs": [],
      "name": "getDefaultCharacters",
      "outputs": [
        {
          "components": [
            {
              "internalType": "uint256",
              "name": "characterIndex",
              "type": "uint256"
            },
            {
              "internalType": "string",
              "name": "name",
              "type": "string"
            },
            {
              "internalType": "string",
              "name": "imageURI",
              "type": "string"
            },
            {
              "internalType": "uint256",
              "name": "hp",
              "type": "uint256"
            },
            {
              "internalType": "uint256",
              "name": "maxHp",
              "type": "uint256"
            },
            {
              "internalType": "uint256",
              "name": "attackDamage",
              "type": "uint256"
            },
            {
              "internalType": "uint256",
              "name": "armour",
              "type": "uint256"
            },
            {
              "internalType": "uint256",
              "name": "maxArmour",
              "type": "uint256"
            }
          ],
          "internalType": "struct NFTGame.CharacterAttributes[]",
          "name": "",
          "type": "tuple[]"
        }
      ],
      "stateMutability": "view",
      "type": "function"
    },
    {
      "inputs": [
        {
          "internalType": "address",
          "name": "owner",
          "type": "address"
        },
        {
          "internalType": "address",
          "name": "operator",
          "type": "address"
        }
      ],
      "name": "isApprovedForAll",
      "outputs": [
        {
          "internalType": "bool",
          "name": "",
          "type": "bool"
        }
      ],
      "stateMutability": "view",
      "type": "function"
    },
    {
      "inputs": [
        {
          "internalType": "uint256",
          "name": "_characterIndex",
          "type": "uint256"
        }
      ],
      "name": "mintCharacterNFT",
      "outputs": [],
      "stateMutability": "nonpayable",
      "type": "function"
    },
    {
      "inputs": [],
      "name": "name",
      "outputs": [
        {
          "internalType": "string",
          "name": "",
          "type": "string"
        }
      ],
      "stateMutability": "view",
      "type": "function"
    },
    {
      "inputs": [
        {
          "internalType": "uint256",
          "name": "",
          "type": "uint256"
        }
      ],
      "name": "nftHolderAttributes",
      "outputs": [
        {
          "internalType": "uint256",
          "name": "characterIndex",
          "type": "uint256"
        },
        {
          "internalType": "string",
          "name": "name",
          "type": "string"
        },
        {
          "internalType": "string",
          "name": "imageURI",
          "type": "string"
        },
        {
          "internalType": "uint256",
          "name": "hp",
          "type": "uint256"
        },
        {
          "internalType": "uint256",
          "name": "maxHp",
          "type": "uint256"
        },
        {
          "internalType": "uint256",
          "name": "attackDamage",
          "type": "uint256"
        },
        {
          "internalType": "uint256",
          "name": "armour",
          "type": "uint256"
        },
        {
          "internalType": "uint256",
          "name": "maxArmour",
          "type": "uint256"
        }
      ],
      "stateMutability": "view",
      "type": "function"
    },
    {
      "inputs": [
        {
          "internalType": "address",
          "name": "",
          "type": "address"
        }
      ],
      "name": "nftHolders",
      "outputs": [
        {
          "internalType": "uint256",
          "name": "",
          "type": "uint256"
        }
      ],
      "stateMutability": "view",
      "type": "function"
    },
    {
      "inputs": [
        {
          "internalType": "uint256",
          "name": "tokenId",
          "type": "uint256"
        }
      ],
      "name": "ownerOf",
      "outputs": [
        {
          "internalType": "address",
          "name": "",
          "type": "address"
        }
      ],
      "stateMutability": "view",
      "type": "function"
    },
    {
      "inputs": [
        {
          "internalType": "address",
          "name": "from",
          "type": "address"
        },
        {
          "internalType": "address",
          "name": "to",
          "type": "address"
        },
        {
          "internalType": "uint256",
          "name": "tokenId",
          "type": "uint256"
        }
      ],
      "name": "safeTransferFrom",
      "outputs": [],
      "stateMutability": "nonpayable",
      "type": "function"
    },
    {
      "inputs": [
        {
          "internalType": "address",
          "name": "from",
          "type": "address"
        },
        {
          "internalType": "address",
          "name": "to",
          "type": "address"
        },
        {
          "internalType": "uint256",
          "name": "tokenId",
          "type": "uint256"
        },
        {
          "internalType": "bytes",
          "name": "_data",
          "type": "bytes"
        }
      ],
      "name": "safeTransferFrom",
      "outputs": [],
      "stateMutability": "nonpayable",
      "type": "function"
    },
    {
      "inputs": [
        {
          "internalType": "address",
          "name": "operator",
          "type": "address"
        },
        {
          "internalType": "bool",
          "name": "approved",
          "type": "bool"
        }
      ],
      "name": "setApprovalForAll",
      "outputs": [],
      "stateMutability": "nonpayable",
      "type": "function"
    },
    {
      "inputs": [
        {
          "internalType": "bytes4",
          "name": "interfaceId",
          "type": "bytes4"
        }
      ],
      "name": "supportsInterface",
      "outputs": [
        {
          "internalType": "bool",
          "name": "",
          "type": "bool"
        }
      ],
      "stateMutability": "view",
      "type": "function"
    },
    {
      "inputs": [],
      "name": "symbol",
      "outputs": [
        {
          "internalType": "string",
          "name": "",
          "type": "string"
        }
      ],
      "stateMutability": "view",
      "type": "function"
    },
    {
      "inputs": [
        {
          "internalType": "uint256",
          "name": "_tokenId",
          "type": "uint256"
        }
      ],
      "name": "tokenURI",
      "outputs": [
        {
          "internalType": "string",
          "name": "",
          "type": "string"
        }
      ],
      "stateMutability": "view",
      "type": "function"
    },
    {
      "inputs": [
        {
          "internalType": "address",
          "name": "from",
          "type": "address"
        },
        {
          "internalType": "address",
          "name": "to",
          "type": "address"
        },
        {
          "internalType": "uint256",
          "name": "tokenId",
          "type": "uint256"
        }
      ],
      "name": "transferFrom",
      "outputs": [],
      "stateMutability": "nonpayable",
      "type": "function"
    }
  ],
  "bytecode": "0x60806040523480156200001157600080fd5b5060405162005a4338038062005a43833981810160405281019062000037919062000b13565b6040518060400160405280600481526020017f43726577000000000000000000000000000000000000000000000000000000008152506040518060400160405280600481526020017f43524557000000000000000000000000000000000000000000000000000000008152508160009080519060200190620000bb929190620008a6565b508060019080519060200190620000d4929190620008a6565b50505060005b8951811015620005ab5760076040518061010001604052808381526020018c848151811062000132577f4e487b7100000000000000000000000000000000000000000000000000000000600052603260045260246000fd5b602002602001015181526020018b848151811062000179577f4e487b7100000000000000000000000000000000000000000000000000000000600052603260045260246000fd5b602002602001015181526020018a8481518110620001c0577f4e487b7100000000000000000000000000000000000000000000000000000000600052603260045260246000fd5b602002602001015181526020018a848151811062000207577f4e487b7100000000000000000000000000000000000000000000000000000000600052603260045260246000fd5b602002602001015181526020018984815181106200024e577f4e487b7100000000000000000000000000000000000000000000000000000000600052603260045260246000fd5b6020026020010151815260200188848151811062000295577f4e487b7100000000000000000000000000000000000000000000000000000000600052603260045260246000fd5b60200260200101518152602001888481518110620002dc577f4e487b7100000000000000000000000000000000000000000000000000000000600052603260045260246000fd5b6020026020010151815250908060018154018082558091505060019003906000526020600020906008020160009091909190915060008201518160000155602082015181600101908051906020019062000338929190620008a6565b50604082015181600201908051906020019062000357929190620008a6565b50606082015181600301556080820151816004015560a0820151816005015560c0820151816006015560e082015181600701555050600060078281548110620003c9577f4e487b7100000000000000000000000000000000000000000000000000000000600052603260045260246000fd5b90600052602060002090600802016040518061010001604052908160008201548152602001600182018054620003ff9062000ecd565b80601f01602080910402602001604051908101604052809291908181526020018280546200042d9062000ecd565b80156200047e5780601f1062000452576101008083540402835291602001916200047e565b820191906000526020600020905b8154815290600101906020018083116200046057829003601f168201915b50505050508152602001600282018054620004999062000ecd565b80601f0160208091040260200160405190810160405280929190818152602001828054620004c79062000ecd565b8015620005185780601f10620004ec5761010080835404028352916020019162000518565b820191906000526020600020905b815481529060010190602001808311620004fa57829003601f168201915b5050505050815260200160038201548152602001600482015481526020016005820154815260200160068201548152602001600782015481525050905062000593604051806060016040528060258152602001620059f460259139826020015183606001518460400151620007bb60201b62001d011760201c565b50600181620005a3919062000e30565b9050620000da565b50620005c360066200086760201b62001da31760201c565b6040518060a0016040528085815260200184815260200183815260200183815260200182815250600860008201518160000190805190602001906200060a929190620008a6565b50602082015181600101908051906020019062000629929190620008a6565b50604082015181600201556060820151816003015560808201518160040155905050620007ac6040518060600160405280602a815260200162005a19602a9139600860000180546200067b9062000ecd565b80601f0160208091040260200160405190810160405280929190818152602001828054620006a99062000ecd565b8015620006fa5780601f10620006ce57610100808354040283529160200191620006fa565b820191906000526020600020905b815481529060010190602001808311620006dc57829003601f168201915b505050505060086002015460086001018054620007179062000ecd565b80601f0160208091040260200160405190810160405280929190818152602001828054620007459062000ecd565b8015620007965780601f106200076a5761010080835404028352916020019162000796565b820191906000526020600020905b8154815290600101906020018083116200077857829003601f168201915b5050505050620007bb60201b62001d011760201c565b50505050505050505062000fbb565b6200086184848484604051602401620007d8949392919062000ced565b6040516020818303038152906040527f8d142cdd000000000000000000000000000000000000000000000000000000007bffffffffffffffffffffffffffffffffffffffffffffffffffffffff19166020820180517bffffffffffffffffffffffffffffffffffffffffffffffffffffffff83818316178352505050506200087d60201b60201c565b50505050565b6001816000016000828254019250508190555050565b60008151905060006a636f6e736f6c652e6c6f679050602083016000808483855afa5050505050565b828054620008b49062000ecd565b90600052602060002090601f016020900481019282620008d8576000855562000924565b82601f10620008f357805160ff191683800117855562000924565b8280016001018555821562000924579182015b828111156200092357825182559160200191906001019062000906565b5b50905062000933919062000937565b5090565b5b808211156200095257600081600090555060010162000938565b5090565b60006200096d620009678462000d83565b62000d4f565b9050808382526020820190508260005b85811015620009b1578151850162000996888262000acf565b8452602084019350602083019250506001810190506200097d565b5050509392505050565b6000620009d2620009cc8462000db2565b62000d4f565b90508083825260208201905082856020860282011115620009f257600080fd5b60005b8581101562000a26578162000a0b888262000afc565b845260208401935060208301925050600181019050620009f5565b5050509392505050565b600062000a4762000a418462000de1565b62000d4f565b90508281526020810184848401111562000a6057600080fd5b62000a6d84828562000e97565b509392505050565b600082601f83011262000a8757600080fd5b815162000a9984826020860162000956565b91505092915050565b600082601f83011262000ab457600080fd5b815162000ac6848260208601620009bb565b91505092915050565b600082601f83011262000ae157600080fd5b815162000af384826020860162000a30565b91505092915050565b60008151905062000b0d8162000fa1565b92915050565b60008060008060008060008060006101208a8c03121562000b3357600080fd5b60008a015167ffffffffffffffff81111562000b4e57600080fd5b62000b5c8c828d0162000a75565b99505060208a015167ffffffffffffffff81111562000b7a57600080fd5b62000b888c828d0162000a75565b98505060408a015167ffffffffffffffff81111562000ba657600080fd5b62000bb48c828d0162000aa2565b97505060608a015167ffffffffffffffff81111562000bd257600080fd5b62000be08c828d0162000aa2565b96505060808a015167ffffffffffffffff81111562000bfe57600080fd5b62000c0c8c828d0162000aa2565b95505060a08a015167ffffffffffffffff81111562000c2a57600080fd5b62000c388c828d0162000acf565b94505060c08a015167ffffffffffffffff81111562000c5657600080fd5b62000c648c828d0162000acf565b93505060e062000c778c828d0162000afc565b92505061010062000c8b8c828d0162000afc565b9150509295985092959850929598565b600062000ca88262000e14565b62000cb4818562000e1f565b935062000cc681856020860162000e97565b62000cd18162000f90565b840191505092915050565b62000ce78162000e8d565b82525050565b6000608082019050818103600083015262000d09818762000c9b565b9050818103602083015262000d1f818662000c9b565b905062000d30604083018562000cdc565b818103606083015262000d44818462000c9b565b905095945050505050565b6000604051905081810181811067ffffffffffffffff8211171562000d795762000d7862000f61565b5b8060405250919050565b600067ffffffffffffffff82111562000da15762000da062000f61565b5b602082029050602081019050919050565b600067ffffffffffffffff82111562000dd05762000dcf62000f61565b5b602082029050602081019050919050565b600067ffffffffffffffff82111562000dff5762000dfe62000f61565b5b601f19601f8301169050602081019050919050565b600081519050919050565b600082825260208201905092915050565b600062000e3d8262000e8d565b915062000e4a8362000e8d565b9250827fffffffffffffffffffffffffffffffffffffffffffffffffffffffffffffffff0382111562000e825762000e8162000f03565b5b828201905092915050565b6000819050919050565b60005b8381101562000eb757808201518184015260208101905062000e9a565b8381111562000ec7576000848401525b50505050565b6000600282049050600182168062000ee657607f821691505b6020821081141562000efd5762000efc62000f32565b5b50919050565b7f4e487b7100000000000000000000000000000000000000000000000000000000600052601160045260246000fd5b7f4e487b7100000000000000000000000000000000000000000000000000000000600052602260045260246000fd5b7f4e487b7100000000000000000000000000000000000000000000000000000000600052604160045260246000fd5b6000601f19601f8301169050919050565b62000fac8162000e8d565b811462000fb857600080fd5b50565b614a298062000fcb6000396000f3fe608060405234801561001057600080fd5b50600436106101375760003560e01c80637df124a1116100b8578063b88d4fde1161007c578063b88d4fde1461036d578063c87b56dd14610389578063c8cf27f4146103b9578063d4f24c5b146103d7578063e985e9c5146103e1578063f8b81ef71461041157610137565b80637df124a1146102aa57806395d89b41146102da57806398da4c95146102f8578063a22cb4651461032f578063a9c326791461034b57610137565b806323b872dd116100ff57806323b872dd146101f457806342842e0e146102105780636352211e1461022c57806370a082311461025c57806374bce80a1461028c57610137565b806301ffc9a71461013c5780630665f9611461016c57806306fdde031461018a578063081812fc146101a8578063095ea7b3146101d8575b600080fd5b61015660048036038101906101519190613157565b61042d565b6040516101639190613fc1565b60405180910390f35b61017461050f565b604051610181919061435a565b60405180910390f35b61019261066b565b60405161019f9190613fdc565b60405180910390f35b6101c260048036038101906101bd91906131a9565b6106fd565b6040516101cf9190613f01565b60405180910390f35b6101f260048036038101906101ed919061311b565b610782565b005b61020e60048036038101906102099190613015565b61089a565b005b61022a60048036038101906102259190613015565b6108fa565b005b610246600480360381019061024191906131a9565b61091a565b6040516102539190613f01565b60405180910390f35b61027660048036038101906102719190612fb0565b6109cc565b604051610283919061439e565b60405180910390f35b610294610a84565b6040516102a19190613f9f565b60405180910390f35b6102c460048036038101906102bf9190612fb0565b610c44565b6040516102d1919061439e565b60405180910390f35b6102e2610c5c565b6040516102ef9190613fdc565b60405180910390f35b610312600480360381019061030d91906131a9565b610cee565b6040516103269897969594939291906143b9565b60405180910390f35b610349600480360381019061034491906130df565b610e46565b005b610353610e5c565b6040516103649594939291906140ab565b60405180910390f35b61038760048036038101906103829190613064565b610f90565b005b6103a3600480360381019061039e91906131a9565b610ff2565b6040516103b09190613fdc565b60405180910390f35b6103c161124a565b6040516103ce919061437c565b60405180910390f35b6103df611437565b005b6103fb60048036038101906103f69190612fd9565b6117c2565b6040516104089190613fc1565b60405180910390f35b61042b600480360381019061042691906131a9565b611856565b005b60007f80ac58cd000000000000000000000000000000000000000000000000000000007bffffffffffffffffffffffffffffffffffffffffffffffffffffffff1916827bffffffffffffffffffffffffffffffffffffffffffffffffffffffff191614806104f857507f5b5e139f000000000000000000000000000000000000000000000000000000007bffffffffffffffffffffffffffffffffffffffffffffffffffffffff1916827bffffffffffffffffffffffffffffffffffffffffffffffffffffffff1916145b80610508575061050782611db9565b5b9050919050565b610517612dc8565b60086040518060a001604052908160008201805461053490614727565b80601f016020809104026020016040519081016040528092919081815260200182805461056090614727565b80156105ad5780601f10610582576101008083540402835291602001916105ad565b820191906000526020600020905b81548152906001019060200180831161059057829003601f168201915b505050505081526020016001820180546105c690614727565b80601f01602080910402602001604051908101604052809291908181526020018280546105f290614727565b801561063f5780601f106106145761010080835404028352916020019161063f565b820191906000526020600020905b81548152906001019060200180831161062257829003601f168201915b505050505081526020016002820154815260200160038201548152602001600482015481525050905090565b60606000805461067a90614727565b80601f01602080910402602001604051908101604052809291908181526020018280546106a690614727565b80156106f35780601f106106c8576101008083540402835291602001916106f3565b820191906000526020600020905b8154815290600101906020018083116106d657829003601f168201915b5050505050905090565b600061070882611e23565b610747576040517f08c379a000000000000000000000000000000000000000000000000000000000815260040161073e9061429a565b60405180910390fd5b6004600083815260200190815260200160002060009054906101000a900473ffffffffffffffffffffffffffffffffffffffff169050919050565b600061078d8261091a565b90508073ffffffffffffffffffffffffffffffffffffffff168373ffffffffffffffffffffffffffffffffffffffff1614156107fe576040517f08c379a00000000000000000000000000000000000000000000000000000000081526004016107f5906142da565b60405180910390fd5b8073ffffffffffffffffffffffffffffffffffffffff1661081d611e8f565b73ffffffffffffffffffffffffffffffffffffffff16148061084c575061084b81610846611e8f565b6117c2565b5b61088b576040517f08c379a00000000000000000000000000000000000000000000000000000000081526004016108829061421a565b60405180910390fd5b6108958383611e97565b505050565b6108ab6108a5611e8f565b82611f50565b6108ea576040517f08c379a00000000000000000000000000000000000000000000000000000000081526004016108e19061431a565b60405180910390fd5b6108f583838361202e565b505050565b61091583838360405180602001604052806000815250610f90565b505050565b6000806002600084815260200190815260200160002060009054906101000a900473ffffffffffffffffffffffffffffffffffffffff169050600073ffffffffffffffffffffffffffffffffffffffff168173ffffffffffffffffffffffffffffffffffffffff1614156109c3576040517f08c379a00000000000000000000000000000000000000000000000000000000081526004016109ba9061425a565b60405180910390fd5b80915050919050565b60008073ffffffffffffffffffffffffffffffffffffffff168273ffffffffffffffffffffffffffffffffffffffff161415610a3d576040517f08c379a0000000000000000000000000000000000000000000000000000000008152600401610a349061423a565b60405180910390fd5b600360008373ffffffffffffffffffffffffffffffffffffffff1673ffffffffffffffffffffffffffffffffffffffff168152602001908152602001600020549050919050565b60606007805480602002602001604051908101604052809291908181526020016000905b82821015610c3b57838290600052602060002090600802016040518061010001604052908160008201548152602001600182018054610ae690614727565b80601f0160208091040260200160405190810160405280929190818152602001828054610b1290614727565b8015610b5f5780601f10610b3457610100808354040283529160200191610b5f565b820191906000526020600020905b815481529060010190602001808311610b4257829003601f168201915b50505050508152602001600282018054610b7890614727565b80601f0160208091040260200160405190810160405280929190818152602001828054610ba490614727565b8015610bf15780601f10610bc657610100808354040283529160200191610bf1565b820191906000526020600020905b815481529060010190602001808311610bd457829003601f168201915b505050505081526020016003820154815260200160048201548152602001600582015481526020016006820154815260200160078201548152505081526020019060010190610aa8565b50505050905090565b600e6020528060005260406000206000915090505481565b606060018054610c6b90614727565b80601f0160208091040260200160405190810160405280929190818152602001828054610c9790614727565b8015610ce45780601f10610cb957610100808354040283529160200191610ce4565b820191906000526020600020905b815481529060010190602001808311610cc757829003601f168201915b5050505050905090565b600d602052806000526040600020600091509050806000015490806001018054610d1790614727565b80601f0160208091040260200160405190810160405280929190818152602001828054610d4390614727565b8015610d905780601f10610d6557610100808354040283529160200191610d90565b820191906000526020600020905b815481529060010190602001808311610d7357829003601f168201915b505050505090806002018054610da590614727565b80601f0160208091040260200160405190810160405280929190818152602001828054610dd190614727565b8015610e1e5780601f10610df357610100808354040283529160200191610e1e565b820191906000526020600020905b815481529060010190602001808311610e0157829003601f168201915b5050505050908060030154908060040154908060050154908060060154908060070154905088565b610e58610e51611e8f565b838361228a565b5050565b6008806000018054610e6d90614727565b80601f0160208091040260200160405190810160405280929190818152602001828054610e9990614727565b8015610ee65780601f10610ebb57610100808354040283529160200191610ee6565b820191906000526020600020905b815481529060010190602001808311610ec957829003601f168201915b505050505090806001018054610efb90614727565b80601f0160208091040260200160405190810160405280929190818152602001828054610f2790614727565b8015610f745780601f10610f4957610100808354040283529160200191610f74565b820191906000526020600020905b815481529060010190602001808311610f5757829003601f168201915b5050505050908060020154908060030154908060040154905085565b610fa1610f9b611e8f565b83611f50565b610fe0576040517f08c379a0000000000000000000000000000000000000000000000000000000008152600401610fd79061431a565b60405180910390fd5b610fec848484846123f7565b50505050565b60606000600d6000848152602001908152602001600020604051806101000160405290816000820154815260200160018201805461102f90614727565b80601f016020809104026020016040519081016040528092919081815260200182805461105b90614727565b80156110a85780601f1061107d576101008083540402835291602001916110a8565b820191906000526020600020905b81548152906001019060200180831161108b57829003601f168201915b505050505081526020016002820180546110c190614727565b80601f01602080910402602001604051908101604052809291908181526020018280546110ed90614727565b801561113a5780601f1061110f5761010080835404028352916020019161113a565b820191906000526020600020905b81548152906001019060200180831161111d57829003601f168201915b5050505050815260200160038201548152602001600482015481526020016005820154815260200160068201548152602001600782015481525050905060006111868260600151612453565b905060006111978360800151612453565b905060006111a88460a00151612453565b905060006111b98560c00151612453565b905060006111ca8660e00151612453565b9050600061121487602001516111df8b612453565b89604001518989898989604051602001611200989796959493929190613e0a565b604051602081830303815290604052612600565b90506000816040516020016112299190613edf565b60405160208183030381529060405290508098505050505050505050919050565b611252612df7565b6000600e60003373ffffffffffffffffffffffffffffffffffffffff1673ffffffffffffffffffffffffffffffffffffffff168152602001908152602001600020549050600081111561142657600d600082815260200190815260200160002060405180610100016040529081600082015481526020016001820180546112d890614727565b80601f016020809104026020016040519081016040528092919081815260200182805461130490614727565b80156113515780601f1061132657610100808354040283529160200191611351565b820191906000526020600020905b81548152906001019060200180831161133457829003601f168201915b5050505050815260200160028201805461136a90614727565b80601f016020809104026020016040519081016040528092919081815260200182805461139690614727565b80156113e35780601f106113b8576101008083540402835291602001916113e3565b820191906000526020600020905b8154815290600101906020018083116113c657829003601f168201915b5050505050815260200160038201548152602001600482015481526020016005820154815260200160068201548152602001600782015481525050915050611434565b61142e612df7565b80925050505b90565b6000600e60003373ffffffffffffffffffffffffffffffffffffffff1673ffffffffffffffffffffffffffffffffffffffff1681526020019081526020016000205490506000600d6000838152602001908152602001600020905061154a6040518060600160405280603c81526020016149b8603c91398260010180546114bd90614727565b80601f01602080910402602001604051908101604052809291908181526020018280546114e990614727565b80156115365780601f1061150b57610100808354040283529160200191611536565b820191906000526020600020905b81548152906001019060200180831161151957829003601f168201915b5050505050836003015484600501546127be565b6116226040518060400160405280601b81526020017f426f73732025732068617320257320485020616e6420257320414400000000008152506008600001805461159390614727565b80601f01602080910402602001604051908101604052809291908181526020018280546115bf90614727565b801561160c5780601f106115e15761010080835404028352916020019161160c565b820191906000526020600020905b8154815290600101906020018083116115ef57829003601f168201915b50505050506008600201546008600401546127be565b6000816003015411611669576040517f08c379a00000000000000000000000000000000000000000000000000000000081526004016116609061433a565b60405180910390fd5b6000600860020154116116b1576040517f08c379a00000000000000000000000000000000000000000000000000000000081526004016116a8906142fa565b60405180910390fd5b806005015460086002015410156116d25760006008600201819055506116f1565b80600501546008600201546116e7919061463d565b6008600201819055505b60086004015481600301541015611711576000816003018190555061172f565b6008600401548160030154611726919061463d565b81600301819055505b61175660405180606001604052806025815260200161492b60259139600860020154612860565b61177c604051806060016040528060288152602001614990602891398260030154612860565b7f838ab28464562786a6c4ab2311964b82fa60bd9b14aa7e856af1f3f18d41a41460086002015482600301546040516117b6929190614445565b60405180910390a15050565b6000600560008473ffffffffffffffffffffffffffffffffffffffff1673ffffffffffffffffffffffffffffffffffffffff16815260200190815260200160002060008373ffffffffffffffffffffffffffffffffffffffff1673ffffffffffffffffffffffffffffffffffffffff16815260200190815260200160002060009054906101000a900460ff16905092915050565b600061186260066128fc565b905061186e338261290a565b604051806101000160405280838152602001600784815481106118ba577f4e487b7100000000000000000000000000000000000000000000000000000000600052603260045260246000fd5b906000526020600020906008020160010180546118d690614727565b80601f016020809104026020016040519081016040528092919081815260200182805461190290614727565b801561194f5780601f106119245761010080835404028352916020019161194f565b820191906000526020600020905b81548152906001019060200180831161193257829003601f168201915b5050505050815260200160078481548110611993577f4e487b7100000000000000000000000000000000000000000000000000000000600052603260045260246000fd5b906000526020600020906008020160020180546119af90614727565b80601f01602080910402602001604051908101604052809291908181526020018280546119db90614727565b8015611a285780601f106119fd57610100808354040283529160200191611a28565b820191906000526020600020905b815481529060010190602001808311611a0b57829003601f168201915b5050505050815260200160078481548110611a6c577f4e487b7100000000000000000000000000000000000000000000000000000000600052603260045260246000fd5b906000526020600020906008020160030154815260200160078481548110611abd577f4e487b7100000000000000000000000000000000000000000000000000000000600052603260045260246000fd5b906000526020600020906008020160040154815260200160078481548110611b0e577f4e487b7100000000000000000000000000000000000000000000000000000000600052603260045260246000fd5b906000526020600020906008020160050154815260200160078481548110611b5f577f4e487b7100000000000000000000000000000000000000000000000000000000600052603260045260246000fd5b906000526020600020906008020160060154815260200160078481548110611bb0577f4e487b7100000000000000000000000000000000000000000000000000000000600052603260045260246000fd5b906000526020600020906008020160070154815250600d6000838152602001908152602001600020600082015181600001556020820151816001019080519060200190611bfe929190612e3c565b506040820151816002019080519060200190611c1b929190612e3c565b50606082015181600301556080820151816004015560a0820151816005015560c0820151816006015560e08201518160070155905050611c746040518060600160405280602e81526020016148fd602e91398284612928565b80600e60003373ffffffffffffffffffffffffffffffffffffffff1673ffffffffffffffffffffffffffffffffffffffff16815260200190815260200160002081905550611cc26006611da3565b7f5c5a40a57afc3c1041f01d72639b5cc9543d2f381f4f9869d6ce1ed50b45d498338284604051611cf593929190613f68565b60405180910390a15050565b611d9d84848484604051602401611d1b9493929190613ffe565b6040516020818303038152906040527f8d142cdd000000000000000000000000000000000000000000000000000000007bffffffffffffffffffffffffffffffffffffffffffffffffffffffff19166020820180517bffffffffffffffffffffffffffffffffffffffffffffffffffffffff83818316178352505050506129c7565b50505050565b6001816000016000828254019250508190555050565b60007f01ffc9a7000000000000000000000000000000000000000000000000000000007bffffffffffffffffffffffffffffffffffffffffffffffffffffffff1916827bffffffffffffffffffffffffffffffffffffffffffffffffffffffff1916149050919050565b60008073ffffffffffffffffffffffffffffffffffffffff166002600084815260200190815260200160002060009054906101000a900473ffffffffffffffffffffffffffffffffffffffff1673ffffffffffffffffffffffffffffffffffffffff1614159050919050565b600033905090565b816004600083815260200190815260200160002060006101000a81548173ffffffffffffffffffffffffffffffffffffffff021916908373ffffffffffffffffffffffffffffffffffffffff160217905550808273ffffffffffffffffffffffffffffffffffffffff16611f0a8361091a565b73ffffffffffffffffffffffffffffffffffffffff167f8c5be1e5ebec7d5bd14f71427d1e84f3dd0314c0f7b2291e5b200ac8c7c3b92560405160405180910390a45050565b6000611f5b82611e23565b611f9a576040517f08c379a0000000000000000000000000000000000000000000000000000000008152600401611f91906141fa565b60405180910390fd5b6000611fa58361091a565b90508073ffffffffffffffffffffffffffffffffffffffff168473ffffffffffffffffffffffffffffffffffffffff16148061201457508373ffffffffffffffffffffffffffffffffffffffff16611ffc846106fd565b73ffffffffffffffffffffffffffffffffffffffff16145b80612025575061202481856117c2565b5b91505092915050565b8273ffffffffffffffffffffffffffffffffffffffff1661204e8261091a565b73ffffffffffffffffffffffffffffffffffffffff16146120a4576040517f08c379a000000000000000000000000000000000000000000000000000000000815260040161209b906142ba565b60405180910390fd5b600073ffffffffffffffffffffffffffffffffffffffff168273ffffffffffffffffffffffffffffffffffffffff161415612114576040517f08c379a000000000000000000000000000000000000000000000000000000000815260040161210b906141ba565b60405180910390fd5b61211f8383836129f0565b61212a600082611e97565b6001600360008573ffffffffffffffffffffffffffffffffffffffff1673ffffffffffffffffffffffffffffffffffffffff168152602001908152602001600020600082825461217a919061463d565b925050819055506001600360008473ffffffffffffffffffffffffffffffffffffffff1673ffffffffffffffffffffffffffffffffffffffff16815260200190815260200160002060008282546121d1919061455c565b92505081905550816002600083815260200190815260200160002060006101000a81548173ffffffffffffffffffffffffffffffffffffffff021916908373ffffffffffffffffffffffffffffffffffffffff160217905550808273ffffffffffffffffffffffffffffffffffffffff168473ffffffffffffffffffffffffffffffffffffffff167fddf252ad1be2c89b69c2b068fc378daa952ba7f163c4a11628f55a4df523b3ef60405160405180910390a4505050565b8173ffffffffffffffffffffffffffffffffffffffff168373ffffffffffffffffffffffffffffffffffffffff1614156122f9576040517f08c379a00000000000000000000000000000000000000000000000000000000081526004016122f0906141da565b60405180910390fd5b80600560008573ffffffffffffffffffffffffffffffffffffffff1673ffffffffffffffffffffffffffffffffffffffff16815260200190815260200160002060008473ffffffffffffffffffffffffffffffffffffffff1673ffffffffffffffffffffffffffffffffffffffff16815260200190815260200160002060006101000a81548160ff0219169083151502179055508173ffffffffffffffffffffffffffffffffffffffff168373ffffffffffffffffffffffffffffffffffffffff167f17307eab39ab6107e8899845ad3d59bd9653f200f220920489ca2b5937696c31836040516123ea9190613fc1565b60405180910390a3505050565b61240284848461202e565b61240e848484846129f5565b61244d576040517f08c379a00000000000000000000000000000000000000000000000000000000081526004016124449061417a565b60405180910390fd5b50505050565b6060600082141561249b576040518060400160405280600181526020017f300000000000000000000000000000000000000000000000000000000000000081525090506125fb565b600082905060005b600082146124cd5780806124b690614759565b915050600a826124c691906145b2565b91506124a3565b60008167ffffffffffffffff81111561250f577f4e487b7100000000000000000000000000000000000000000000000000000000600052604160045260246000fd5b6040519080825280601f01601f1916602001820160405280156125415781602001600182028036833780820191505090505b5090505b600085146125f45760018261255a919061463d565b9150600a8561256991906147a2565b6030612575919061455c565b60f81b8183815181106125b1577f4e487b7100000000000000000000000000000000000000000000000000000000600052603260045260246000fd5b60200101907effffffffffffffffffffffffffffffffffffffffffffffffffffffffffffff1916908160001a905350600a856125ed91906145b2565b9450612545565b8093505050505b919050565b6060600082519050600081141561262957604051806020016040528060008152509150506127b9565b6000600360028361263a919061455c565b61264491906145b2565b600461265091906145e3565b90506000602082612661919061455c565b67ffffffffffffffff8111156126a0577f4e487b7100000000000000000000000000000000000000000000000000000000600052604160045260246000fd5b6040519080825280601f01601f1916602001820160405280156126d25781602001600182028036833780820191505090505b5090506000604051806060016040528060408152602001614950604091399050600181016020830160005b868110156127765760038101905062ffffff818a015116603f8160121c168401518060081b905060ff603f83600c1c1686015116810190508060081b905060ff603f8360061c1686015116810190508060081b905060ff603f831686015116810190508060e01b905080845260048401935050506126fd565b50600386066001811461279057600281146127a0576127ab565b613d3d60f01b60028303526127ab565b603d60f81b60018303525b508484525050819450505050505b919050565b61285a848484846040516024016127d89493929190614058565b6040516020818303038152906040527fd5cf17d0000000000000000000000000000000000000000000000000000000007bffffffffffffffffffffffffffffffffffffffffffffffffffffffff19166020820180517bffffffffffffffffffffffffffffffffffffffffffffffffffffffff83818316178352505050506129c7565b50505050565b6128f8828260405160240161287692919061410c565b6040516020818303038152906040527f9710a9d0000000000000000000000000000000000000000000000000000000007bffffffffffffffffffffffffffffffffffffffffffffffffffffffff19166020820180517bffffffffffffffffffffffffffffffffffffffffffffffffffffffff83818316178352505050506129c7565b5050565b600081600001549050919050565b612924828260405180602001604052806000815250612b8c565b5050565b6129c28383836040516024016129409392919061413c565b6040516020818303038152906040527f969cdd03000000000000000000000000000000000000000000000000000000007bffffffffffffffffffffffffffffffffffffffffffffffffffffffff19166020820180517bffffffffffffffffffffffffffffffffffffffffffffffffffffffff83818316178352505050506129c7565b505050565b60008151905060006a636f6e736f6c652e6c6f679050602083016000808483855afa5050505050565b505050565b6000612a168473ffffffffffffffffffffffffffffffffffffffff16612be7565b15612b7f578373ffffffffffffffffffffffffffffffffffffffff1663150b7a02612a3f611e8f565b8786866040518563ffffffff1660e01b8152600401612a619493929190613f1c565b602060405180830381600087803b158015612a7b57600080fd5b505af1925050508015612aac57506040513d601f19601f82011682018060405250810190612aa99190613180565b60015b612b2f573d8060008114612adc576040519150601f19603f3d011682016040523d82523d6000602084013e612ae1565b606091505b50600081511415612b27576040517f08c379a0000000000000000000000000000000000000000000000000000000008152600401612b1e9061417a565b60405180910390fd5b805181602001fd5b63150b7a0260e01b7bffffffffffffffffffffffffffffffffffffffffffffffffffffffff1916817bffffffffffffffffffffffffffffffffffffffffffffffffffffffff191614915050612b84565b600190505b949350505050565b612b968383612bfa565b612ba360008484846129f5565b612be2576040517f08c379a0000000000000000000000000000000000000000000000000000000008152600401612bd99061417a565b60405180910390fd5b505050565b600080823b905060008111915050919050565b600073ffffffffffffffffffffffffffffffffffffffff168273ffffffffffffffffffffffffffffffffffffffff161415612c6a576040517f08c379a0000000000000000000000000000000000000000000000000000000008152600401612c619061427a565b60405180910390fd5b612c7381611e23565b15612cb3576040517f08c379a0000000000000000000000000000000000000000000000000000000008152600401612caa9061419a565b60405180910390fd5b612cbf600083836129f0565b6001600360008473ffffffffffffffffffffffffffffffffffffffff1673ffffffffffffffffffffffffffffffffffffffff1681526020019081526020016000206000828254612d0f919061455c565b92505081905550816002600083815260200190815260200160002060006101000a81548173ffffffffffffffffffffffffffffffffffffffff021916908373ffffffffffffffffffffffffffffffffffffffff160217905550808273ffffffffffffffffffffffffffffffffffffffff16600073ffffffffffffffffffffffffffffffffffffffff167fddf252ad1be2c89b69c2b068fc378daa952ba7f163c4a11628f55a4df523b3ef60405160405180910390a45050565b6040518060a0016040528060608152602001606081526020016000815260200160008152602001600081525090565b60405180610100016040528060008152602001606081526020016060815260200160008152602001600081526020016000815260200160008152602001600081525090565b828054612e4890614727565b90600052602060002090601f016020900481019282612e6a5760008555612eb1565b82601f10612e8357805160ff1916838001178555612eb1565b82800160010185558215612eb1579182015b82811115612eb0578251825591602001919060010190612e95565b5b509050612ebe9190612ec2565b5090565b5b80821115612edb576000816000905550600101612ec3565b5090565b6000612ef2612eed8461449f565b61446e565b905082815260208101848484011115612f0a57600080fd5b612f158482856146e5565b509392505050565b600081359050612f2c816148a0565b92915050565b600081359050612f41816148b7565b92915050565b600081359050612f56816148ce565b92915050565b600081519050612f6b816148ce565b92915050565b600082601f830112612f8257600080fd5b8135612f92848260208601612edf565b91505092915050565b600081359050612faa816148e5565b92915050565b600060208284031215612fc257600080fd5b6000612fd084828501612f1d565b91505092915050565b60008060408385031215612fec57600080fd5b6000612ffa85828601612f1d565b925050602061300b85828601612f1d565b9150509250929050565b60008060006060848603121561302a57600080fd5b600061303886828701612f1d565b935050602061304986828701612f1d565b925050604061305a86828701612f9b565b9150509250925092565b6000806000806080858703121561307a57600080fd5b600061308887828801612f1d565b945050602061309987828801612f1d565b93505060406130aa87828801612f9b565b925050606085013567ffffffffffffffff8111156130c757600080fd5b6130d387828801612f71565b91505092959194509250565b600080604083850312156130f257600080fd5b600061310085828601612f1d565b925050602061311185828601612f32565b9150509250929050565b6000806040838503121561312e57600080fd5b600061313c85828601612f1d565b925050602061314d85828601612f9b565b9150509250929050565b60006020828403121561316957600080fd5b600061317784828501612f47565b91505092915050565b60006020828403121561319257600080fd5b60006131a084828501612f5c565b91505092915050565b6000602082840312156131bb57600080fd5b60006131c984828501612f9b565b91505092915050565b60006131de8383613c7e565b905092915050565b6131ef81614671565b82525050565b6000613200826144df565b61320a818561450d565b93508360208202850161321c856144cf565b8060005b85811015613258578484038952815161323985826131d2565b945061324483614500565b925060208a01995050600181019050613220565b50829750879550505050505092915050565b61327381614683565b82525050565b6000613284826144ea565b61328e818561451e565b935061329e8185602086016146f4565b6132a78161488f565b840191505092915050565b60006132bd826144f5565b6132c7818561452f565b93506132d78185602086016146f4565b6132e08161488f565b840191505092915050565b60006132f6826144f5565b6133008185614540565b93506133108185602086016146f4565b6133198161488f565b840191505092915050565b600061332f826144f5565b6133398185614551565b93506133498185602086016146f4565b80840191505092915050565b6000613362602683614551565b91507f7d2c207b202274726169745f74797065223a202241726d6f7572222c2022766160008301527f6c7565223a2000000000000000000000000000000000000000000000000000006020830152602682019050919050565b60006133c8600b83614551565b91507f202d2d204e465420233a200000000000000000000000000000000000000000006000830152600b82019050919050565b6000613408603283614540565b91507f4552433732313a207472616e7366657220746f206e6f6e20455243373231526560008301527f63656976657220696d706c656d656e74657200000000000000000000000000006020830152604082019050919050565b600061346e601c83614540565b91507f4552433732313a20746f6b656e20616c7265616479206d696e746564000000006000830152602082019050919050565b60006134ae600e83614551565b91507f2c20226d61785f76616c7565223a0000000000000000000000000000000000006000830152600e82019050919050565b60006134ee602483614540565b91507f4552433732313a207472616e7366657220746f20746865207a65726f2061646460008301527f72657373000000000000000000000000000000000000000000000000000000006020830152604082019050919050565b6000613554601983614540565b91507f4552433732313a20617070726f766520746f2063616c6c6572000000000000006000830152602082019050919050565b6000613594602c83614540565b91507f4552433732313a206f70657261746f7220717565727920666f72206e6f6e657860008301527f697374656e7420746f6b656e00000000000000000000000000000000000000006020830152604082019050919050565b60006135fa603883614540565b91507f4552433732313a20617070726f76652063616c6c6572206973206e6f74206f7760008301527f6e6572206e6f7220617070726f76656420666f7220616c6c00000000000000006020830152604082019050919050565b6000613660602a83614540565b91507f4552433732313a2062616c616e636520717565727920666f7220746865207a6560008301527f726f2061646472657373000000000000000000000000000000000000000000006020830152604082019050919050565b60006136c6602983614540565b91507f4552433732313a206f776e657220717565727920666f72206e6f6e657869737460008301527f656e7420746f6b656e00000000000000000000000000000000000000000000006020830152604082019050919050565b600061372c606283614551565b91507f222c20226465736372697074696f6e223a20225468697320697320616e204e4660008301527f542074686174206c6574732070656f706c6520706c617920696e20746865206760208301527f616d65204d657461766572736520536c6179657221222c2022696d616765223a60408301527f20220000000000000000000000000000000000000000000000000000000000006060830152606282019050919050565b60006137de602083614540565b91507f4552433732313a206d696e7420746f20746865207a65726f20616464726573736000830152602082019050919050565b600061381e600383614551565b91507f7d5d7d00000000000000000000000000000000000000000000000000000000006000830152600382019050919050565b600061385e602c83614540565b91507f4552433732313a20617070726f76656420717565727920666f72206e6f6e657860008301527f697374656e7420746f6b656e00000000000000000000000000000000000000006020830152604082019050919050565b60006138c4602983614540565b91507f4552433732313a207472616e73666572206f6620746f6b656e2074686174206960008301527f73206e6f74206f776e00000000000000000000000000000000000000000000006020830152604082019050919050565b600061392a600a83614551565b91507f7b226e616d65223a2022000000000000000000000000000000000000000000006000830152600a82019050919050565b600061396a602183614540565b91507f4552433732313a20617070726f76616c20746f2063757272656e74206f776e6560008301527f72000000000000000000000000000000000000000000000000000000000000006020830152604082019050919050565b60006139d0602783614540565b91507f4572726f723a20426f7373206d757374206861766520485020746f206174746160008301527f636b20626f7373000000000000000000000000000000000000000000000000006020830152604082019050919050565b6000613a36601d83614551565b91507f646174613a6170706c69636174696f6e2f6a736f6e3b6261736536342c0000006000830152601d82019050919050565b6000613a76603183614540565b91507f4552433732313a207472616e736665722063616c6c6572206973206e6f74206f60008301527f776e6572206e6f7220617070726f7665640000000000000000000000000000006020830152604082019050919050565b6000613adc603d83614551565b91507f222c202261747472696275746573223a205b207b202274726169745f7479706560008301527f223a20224865616c746820506f696e7473222c202276616c7565223a200000006020830152603d82019050919050565b6000613b42602d83614551565b91507f7d2c207b202274726169745f74797065223a202241747461636b2044616d616760008301527f65222c202276616c7565223a20000000000000000000000000000000000000006020830152602d82019050919050565b6000613ba8602c83614540565b91507f4572726f723a20436861726163746572206d757374206861766520485020746f60008301527f2061747461636b20626f737300000000000000000000000000000000000000006020830152604082019050919050565b600060a0830160008301518482036000860152613c1e82826132b2565b91505060208301518482036020860152613c3882826132b2565b9150506040830151613c4d6040860182613dec565b506060830151613c606060860182613dec565b506080830151613c736080860182613dec565b508091505092915050565b600061010083016000830151613c976000860182613dec565b5060208301518482036020860152613caf82826132b2565b91505060408301518482036040860152613cc982826132b2565b9150506060830151613cde6060860182613dec565b506080830151613cf16080860182613dec565b5060a0830151613d0460a0860182613dec565b5060c0830151613d1760c0860182613dec565b5060e0830151613d2a60e0860182613dec565b508091505092915050565b600061010083016000830151613d4e6000860182613dec565b5060208301518482036020860152613d6682826132b2565b91505060408301518482036040860152613d8082826132b2565b9150506060830151613d956060860182613dec565b506080830151613da86080860182613dec565b5060a0830151613dbb60a0860182613dec565b5060c0830151613dce60c0860182613dec565b5060e0830151613de160e0860182613dec565b508091505092915050565b613df5816146db565b82525050565b613e04816146db565b82525050565b6000613e158261391d565b9150613e21828b613324565b9150613e2c826133bb565b9150613e38828a613324565b9150613e438261371f565b9150613e4f8289613324565b9150613e5a82613acf565b9150613e668288613324565b9150613e71826134a1565b9150613e7d8287613324565b9150613e8882613b35565b9150613e948286613324565b9150613e9f82613355565b9150613eab8285613324565b9150613eb6826134a1565b9150613ec28284613324565b9150613ecd82613811565b91508190509998505050505050505050565b6000613eea82613a29565b9150613ef68284613324565b915081905092915050565b6000602082019050613f1660008301846131e6565b92915050565b6000608082019050613f3160008301876131e6565b613f3e60208301866131e6565b613f4b6040830185613dfb565b8181036060830152613f5d8184613279565b905095945050505050565b6000606082019050613f7d60008301866131e6565b613f8a6020830185613dfb565b613f976040830184613dfb565b949350505050565b60006020820190508181036000830152613fb981846131f5565b905092915050565b6000602082019050613fd6600083018461326a565b92915050565b60006020820190508181036000830152613ff681846132eb565b905092915050565b6000608082019050818103600083015261401881876132eb565b9050818103602083015261402c81866132eb565b905061403b6040830185613dfb565b818103606083015261404d81846132eb565b905095945050505050565b6000608082019050818103600083015261407281876132eb565b9050818103602083015261408681866132eb565b90506140956040830185613dfb565b6140a26060830184613dfb565b95945050505050565b600060a08201905081810360008301526140c581886132eb565b905081810360208301526140d981876132eb565b90506140e86040830186613dfb565b6140f56060830185613dfb565b6141026080830184613dfb565b9695505050505050565b6000604082019050818103600083015261412681856132eb565b90506141356020830184613dfb565b9392505050565b6000606082019050818103600083015261415681866132eb565b90506141656020830185613dfb565b6141726040830184613dfb565b949350505050565b60006020820190508181036000830152614193816133fb565b9050919050565b600060208201905081810360008301526141b381613461565b9050919050565b600060208201905081810360008301526141d3816134e1565b9050919050565b600060208201905081810360008301526141f381613547565b9050919050565b6000602082019050818103600083015261421381613587565b9050919050565b60006020820190508181036000830152614233816135ed565b9050919050565b6000602082019050818103600083015261425381613653565b9050919050565b60006020820190508181036000830152614273816136b9565b9050919050565b60006020820190508181036000830152614293816137d1565b9050919050565b600060208201905081810360008301526142b381613851565b9050919050565b600060208201905081810360008301526142d3816138b7565b9050919050565b600060208201905081810360008301526142f38161395d565b9050919050565b60006020820190508181036000830152614313816139c3565b9050919050565b6000602082019050818103600083015261433381613a69565b9050919050565b6000602082019050818103600083015261435381613b9b565b9050919050565b600060208201905081810360008301526143748184613c01565b905092915050565b600060208201905081810360008301526143968184613d35565b905092915050565b60006020820190506143b36000830184613dfb565b92915050565b6000610100820190506143cf600083018b613dfb565b81810360208301526143e1818a6132eb565b905081810360408301526143f581896132eb565b90506144046060830188613dfb565b6144116080830187613dfb565b61441e60a0830186613dfb565b61442b60c0830185613dfb565b61443860e0830184613dfb565b9998505050505050505050565b600060408201905061445a6000830185613dfb565b6144676020830184613dfb565b9392505050565b6000604051905081810181811067ffffffffffffffff8211171561449557614494614860565b5b8060405250919050565b600067ffffffffffffffff8211156144ba576144b9614860565b5b601f19601f8301169050602081019050919050565b6000819050602082019050919050565b600081519050919050565b600081519050919050565b600081519050919050565b6000602082019050919050565b600082825260208201905092915050565b600082825260208201905092915050565b600082825260208201905092915050565b600082825260208201905092915050565b600081905092915050565b6000614567826146db565b9150614572836146db565b9250827fffffffffffffffffffffffffffffffffffffffffffffffffffffffffffffffff038211156145a7576145a66147d3565b5b828201905092915050565b60006145bd826146db565b91506145c8836146db565b9250826145d8576145d7614802565b5b828204905092915050565b60006145ee826146db565b91506145f9836146db565b9250817fffffffffffffffffffffffffffffffffffffffffffffffffffffffffffffffff0483118215151615614632576146316147d3565b5b828202905092915050565b6000614648826146db565b9150614653836146db565b925082821015614666576146656147d3565b5b828203905092915050565b600061467c826146bb565b9050919050565b60008115159050919050565b60007fffffffff0000000000000000000000000000000000000000000000000000000082169050919050565b600073ffffffffffffffffffffffffffffffffffffffff82169050919050565b6000819050919050565b82818337600083830152505050565b60005b838110156147125780820151818401526020810190506146f7565b83811115614721576000848401525b50505050565b6000600282049050600182168061473f57607f821691505b6020821081141561475357614752614831565b5b50919050565b6000614764826146db565b91507fffffffffffffffffffffffffffffffffffffffffffffffffffffffffffffffff821415614797576147966147d3565b5b600182019050919050565b60006147ad826146db565b91506147b8836146db565b9250826147c8576147c7614802565b5b828206905092915050565b7f4e487b7100000000000000000000000000000000000000000000000000000000600052601160045260246000fd5b7f4e487b7100000000000000000000000000000000000000000000000000000000600052601260045260246000fd5b7f4e487b7100000000000000000000000000000000000000000000000000000000600052602260045260246000fd5b7f4e487b7100000000000000000000000000000000000000000000000000000000600052604160045260246000fd5b6000601f19601f8301169050919050565b6148a981614671565b81146148b457600080fd5b50565b6148c081614683565b81146148cb57600080fd5b50565b6148d78161468f565b81146148e257600080fd5b50565b6148ee816146db565b81146148f957600080fd5b5056fe4d696e746564204e465420772f20746f6b656e494420257320616e6420636861726163746572696e646578202573506c617965722061747461636b656420626f73732e204e657720626f73732068703a2025734142434445464748494a4b4c4d4e4f505152535455565758595a6162636465666768696a6b6c6d6e6f707172737475767778797a303132333435363738392b2f426f73732061747461636b656420706c617965722e204e657720706c617965722068703a2025730a0a506c6179657220772f206368617261637465722025732061626f757420746f2061747461636b2e2048617320257320485020616e64202573204144a2646970667358221220b6a6f9af1664923017288791f0835ed9aec55c15a2858d8d3741d1b4f45cb12a64736f6c63430008000033446f6e6520696e697469616c697a696e6720257320772f2048502025732c20696d67202573446f6e6520696e697469616c697a696e6720626f737320257320772f2048502025732c20696d67202573",
  "linkReferences": {},
  "deployedLinkReferences": {}
}